:100000000C9434000C943E000C943E000C943E0082
:100010000C943E000C943E000C943E000C943E0068
:100020000C943E000C943E000C943E000C943E0058
:100030000C943E000C943E000C943E000C943E0048
:100040000C943E000C943E000C943E000C943E0038
:100050000C943E000C943E000C943E000C943E0028
:100060000C943E000C943E0011241FBECFEFD8E04C
:10007000DEBFCDBF0E9440000C946C000C940000C9
:100080001092C50083E38093C4008091C200846015
:100090008093C2008091C20082608093C2008091F0
:1000A000C10088608093C1008091C100806180930D
:1000B000C100209A8091C00087FFFCCF8091C600CC
:1000C0008D30C1F38A30B1F3813311F4289AF2CF25
:0C00D000803381F72898EECFF894FFCF22
:00000001FF
